:020000040800F2
:100000007883012029020008251B0008211B000815
:10001000231B00080D050008D51B00080000000088
:10002000000000000000000000000000291B000884
:100030007305000800000000271B00082B1B0008A8
:10004000430200084302000843020008430200087C
:10005000430200084302000843020008430200086C
:100060004302000843020008750500084302000827
:10007000430200084302000843020008430200084C
:10008000430200084302000801050008430200087B
:10009000430200084302000843020008430200082C
:1000A000430200084302000843020008430200081C
:1000B000430200084302000843020008430200080C
:1000C00043020008430200084302000843020008FC
:1000D00043020008430200084302000843020008EC
:1000E00043020008430200084302000843020008DC
:1000F00043020008430200084302000843020008CC
:1001000043020008430200084302000843020008BB
:1001100043020008430200084302000843020008AB
:1001200011050008430200084302000843020008CA
:10013000430200084302000843020008430200088B
:10014000430200084302000843020008430200087B
:10015000430200084302000843020008430200086B
:10016000430200084302000843020008430200085B
:100170004302000843020008430200080000000098
:10018000430200084302000800F002F800F03CF8C7
:100190000AA090E8000C82448344AAF10107DA45E2
:1001A00001D100F031F8AFF2090EBAE80F0013F0F8
:1001B000010F18BFFB1A43F001031847981F0200F4
:1001C000C81F0200103A24BF78C878C1FAD8520775
:1001D00024BF30C830C144BF04680C6070470000C1
:1001E0000023002400250026103A28BF78C1FBD840
:1001F000520728BF30C148BF0B6070471FB503F0DE
:10020000D3FD1FBD10B510BD00F006F91146FFF774
:10021000F5FF03F00DFB00F024F903B4FFF7F2FF44
:1002200003BC00F027F9000009488047094800474F
:10023000FEE7FEE7FEE7FEE7FEE7FEE7FEE7FEE796
:10024000FEE7FEE704480549054A064B70470000F3
:10025000B91B000889010008787D012078830120FE
:10026000787F0120787F012053EA020C00F069803A
:100270002DE9F04B4FF00006002B1FBFB3FA83F5BA
:1002800003FA05F424FA05F65E4012BF1643B2FAEB
:1002900082F502FA05F4C5F120051EBF22FA05FC1D
:1002A00044EA0C04203556EA044C4FEA144418BFC3
:1002B000641C4FF000084FF00009904271EB030CF2
:1002C00039D3002919BFB1FA81F701FA07F6B0FA5C
:1002D00080F700FA07F6C7F120071EBF20FA07FCD7
:1002E00046EA0C062037B6FBF4FCA7EB0507103FE7
:1002F00007F01F0BCBF120062CFA06F60CFA0BFBCD
:1003000044BFB3460026202FA4BF5E464FF0000B2B
:100310005BEA060C08BF4FF0010B19EB0B0948EB29
:100320000608ABFB027C06FB02CC0BFB03CCC01B1C
:1003300071EB0C01C1E70B46024641464846BDE859
:10034000F08B13B5084318BF4FF0FF300146AFF3F1
:100350000080BDE81C4070474FF000020429C0F047
:10036000128010F0030C00F01B80CCF1040CBCF1E7
:10037000020F18BF00F8012BA8BF20F8022BA1EB39
:100380000C0100F00DB85FEAC17C24BF00F8012B1E
:1003900000F8012B48BF00F8012B70474FF0000216
:1003A00000B5134694469646203922BFA0E80C506B
:1003B000A0E80C50B1F12001BFF4F7AF090728BF46
:1003C000A0E80C5048BF0CC05DF804EB890028BFC2
:1003D00040F8042B08BF704748BF20F8022B11F0EB
:1003E000804F18BF00F8012B704770477047704767
:1003F00010B500F009F8006810BD10B5044600F013
:1004000003F8046010BD0000004870472000002081
:1004100000487047200000207546FFF7F9FFAE4600
:1004200005006946534620F00700854618B020B500
:10043000FFF708FFBDE820404FF000064FF000072F
:100440004FF000084FF0000BAC46ACE8C009ACE838
:10045000C009ACE8C009ACE8C00921F007018D462D
:10046000704710B50446AFF300802046BDE8104049
:10047000FFF7D3BE01491820ABBEFEE726000200FD
:1004800070470146806B036C026C13F0500F07D06D
:10049000D20648BF00F0CCBB806BC26C0846104748
:1004A00042F40071016401688A6812F0405F01D172
:1004B000027E0AB100F0DAB8CA6A12F4700F02D0F4
:1004C0008A685205F6D44A6822F020024A60016C1C
:1004D00021F480710164016CC904EBD4016C41F01A
:1004E0000101016400F0C2B8806B40210164416CDD
:1004F00041F00401416400F09BBB806B00F020BA26
:10050000014800F096BB00BFE0550010FEE7000078
:10051000014800F0B3BD00BF2856001010B50168B7
:100520006FF00F0252FA81F21823B2FBF3F306A424
:10053000E35C40F2FF34A1435F2A88BF0431C0E985
:100540001613084610BD00BF000610160006101650
:10055000B0B5046880682568402825F480250846E1
:100560002560636008BF1046A06008BF0A46E260CD
:10057000B0BD7047102000F0F7BE70477047000014
:10058000F8B50022009290F83C20012A01D1022106
:1005900064E0012280F83C200A681FFA82FC4FEADE
:1005A0004C0414FA82F50A2A04D304681E3D04F1AF
:1005B0000C0602E0046804F1100607273368AF4018
:1005C000BB4333608B68AB4035682B4333604D6869
:1005D000062D05D805EB850304F134015D1F0BE002
:1005E00005EB85060C2D87BF04F12C01A6F1410512
:1005F00004F13001A6F123051F230E68AB4026EA63
:1006000003030B600CFA05F30D682B430B601449D0
:10061000A1F541739C421ED1122A04D10A6842F40A
:1006200080020A6017E022F00103102B13D10B683F
:10063000102A43F400030B600DD10A490A4A0968E5
:10064000B1FBF2F101EB810149000091009911B178
:1006500000990139F9E7002180F83C100846F8BDFF
:10066000042301401400002040420F002DE9F84F00
:100670002DED120BDFF87C829FED9F0A9F48002131
:100680004FF4FA52C8F80410B1F5FA5F09D04318D4
:100690009B5C013101EE103AB8EE411A30EE010ACE
:1006A000F2E79FED971A974A80EE010A00214FF476
:1006B000FA5388ED010AB1F5FA5F0BD04418E45CF7
:1006C000013101EE104AB8EE411A31EE401AA2ECA7
:1006D000011AF0E78C49D1E90002896802F0E4FFD1
:1006E0008A4D8B4F8B4E0024B3EE008AB4F59C5F8D
:1006F00013D0381990ED000A301990ED001A31EE40
:10070000400A20EE080A03F089FABDEEC00A10EE96
:10071000100A05F8010B0434E8E74FF49C60C8F8B0
:1007200008007D48DFF8BCB40E9020200D902720F3
:100730000C9008200A90042009907848002708901F
:100740007748012403250F97CDF82CB0CDE9064456
:10075000CDE90444CDE9025500906C484FF00C0AF5
:10076000272120220123CDF804A001F08FFD6D4A3E
:1007700058464FF46A5190476B486C4E0B90CDE948
:1007800008AB4FF0020A2020272110221423CDE9C4
:1007900000AACDE90255CDE90474CDE906774FF002
:1007A00010094FF0140BB0475B480F970E90CDE93E
:1007B0000CB9DFF848B40720CDF82CB0CDE90950CA
:1007C0005B48182608905B48CDE90644CDE904440F
:1007D000CDE9025500905448142110220C230196B3
:1007E00001F01FFE4F4A58464FF4F0519047DFF892
:1007F00018941020CDF82C90CDE9086B4B4E1421A5
:1008000008220A23CDE900AACDE90255CDE90477F3
:10081000CDE906774FF00A0AB047F1480F970E90DE
:100820000820CDE90CA0DFF8E4A30620CDF82CA029
:10083000CDE9095040480A2108904048CDE90644D6
:10084000CDE90444CDE90255302500904846082200
:100850001823019501F0E5FDE54A50464FF470611B
:100860009047DFF8B4930520CDF82C90CDE9085AD5
:10087000CDE90044CDE90240DF4C08200A210822DE
:100880000623CDE90477CDE90677A047E348E5499B
:10089000049008F140000390E1484FF41062029088
:1008A0000B2001900420009048460C2301F0D9FF52
:1008B000C8F82C7098F84000002188F801000C2935
:1008C0000ED008EB010292F9402043B29A4205DDB6
:1008D00010460F46C8F82C1088F801200131EEE7C9
:1008E000D148D249C05D40020860BDEC120B01B096
:1008F000BDE8F08F8000002000000000F4EC002034
:100900000000FA45E43600200000002000510010ED
:10091000C8A60008086A0010E4C5002068A6000800
:10092000743E00084B340008E4000020FF29000852
:1009300074A60008E03E00088CA6000800490008E4
:100940002DE9F84F2DED120BDFF870829FED9C0A18
:100950009C480021C8F80410B1F5FA5F08D0425C49
:10096000013101EE102AB8EE411A30EE010AF3E728
:100970009FED951A954A80EE010A002188ED010A43
:10098000B1F5FA5F0AD0435C013101EE103AB8EEDE
:10099000411A31EE401AA2EC011AF1E78C49D1E973
:1009A0000002896802F080FE8A4D8B4F8B4E002436
:1009B000B3EE008AB4F59C5F13D0381990ED000AAD
:1009C000301990ED001A31EE400A20EE080A03F0CB
:1009D00025F9BDEEC00A10EE100A05F8010B04342B
:1009E000E8E74FF49C60C8F808007D48DFF8F4B1F0
:1009F0000E9020200D9027200C9008200A900420B3
:100A000009907948002708907848012403250F971A
:100A1000CDF82CB0CDE90644CDE90444CDE902552A
:100A200000906C484FF00C0A272120220123CDF8BA
:100A300004A001F02BFC6E4A58464FF46A519047CF
:100A40006C486D4E0B90CDE908AB4FF0020A2020A8
:100A5000272110221423CDE900AACDE90255CDE9C2
:100A60000474CDE906774FF010094FF0140BB0472E
:100A70005B480F970E90CDE90CB9DFF880B10720E5
:100A8000CDF82CB0CDE909505D48182608905D4896
:100A9000CDE90644CDE90444CDE90255009055481E
:100AA000142110220C23019601F0BBFC504A584639
:100AB0004FF4F0519047DFF850911020CDF82C9072
:100AC000CDE9086B4C4E142108220A23CDE900AA77
:100AD000CDE90255CDE90477CDE906774FF00A0A52
:100AE000B0473F480F970E900820CDE90CA0DFF8E3
:100AF0001CA10620CDF82CA0CDE9095044480A21BC
:100B000008904448CDE90644CDE90444CDE90255B6
:100B100030250090484608221823019501F081FCF9
:100B2000334A50464FF470619047DFF8EC9005204F
:100B3000CDF82C90CDE9085ACDE90044CDE902402A
:100B40002D4C08200A2108220623CDE90477CDE99F
:100B50000677A04731483349049008F140000390DC
:100B60002F484FF4106202900B2001900420009057
:100B700048460C2301F075FEC8F82C7098F8400028
:100B8000002188F801000C290ED008EB010292F92F
:100B9000402043B29A4205DD10460F46C8F82C109B
:100BA00088F801200131EEE71F482049C05D40026E
:100BB0000860BDEC120B01B0BDE8F08F8000002092
:100BC00000000000F4EC00200000FA45E4360020AC
:100BD0000000002000510010C8A60008086A00109C
:100BE000E4C500200000001068A60008743E00085C
:100BF0004B340008E4000020FF290008E40F002027
:100C000074A60008E03E0008803A00100042001080
:100C10008CA6000800490008E42D0020E4B3002061
:100C2000BCA6000854B5010848B50108140C0240E0
:100C30007047B0B50446006802684168920717D54E
:100C400011F0200114D0216CC90603D4216C41F4A9
:100C500000712164816811F0405F02D1217E00297A
:100C60006BD02046FFF702FD20686FF01201016093
:100C700002684168520714D511F0800111D0216C2F
:100C8000C90603D4216C41F400512164816811F438
:100C9000401F25D02046FFF771FC20686FF00C0143
:100CA000016002684168D20706D011F040011CBF04
:100CB00001685FEAC17134D10268416892060ED5BD
:100CC00011F080610BD0616C6FF0200541F00201E2
:100CD000616405602046FFF7ABFF20680560B0BD8A
:100CE000816B11F4401F02D081684905D2D441685C
:100CF0004905CFD4816811F0405FCBD1217E002916
:100D0000C8D1416821F080014160206C20F48050FE
:100D10002064206CC005BDD4206C40F0010020642C
:100D2000B8E7206C40F480302064204600F0C0F822
:100D300020686FF001010160BEE7C16A11F4700F15
:100D400003D0816849053FF58CAF416821F020014F
:100D50004160206C20F480702064206CC0043FF55A
:100D600080AF206C40F0010020647AE7002841D079
:100D700070B50446006C30B9204600F09BF80020A6
:100D800084F83C006064206CC00635D4206C41F2CD
:100D900002118843023042492064086820F4403040
:100DA000086094E80D0025690E6832430A604168C6
:100DB00021F480714160416841EA05214160416848
:100DC00021F0407141604168194341608168354BB1
:100DD00021F400618160E16882681143816081686B
:100DE00021F070618160A26A81689A4206D121F087
:100DF00040510CE00120704701204CE0114381601C
:100E0000816821F040518160E16A8268114381600C
:100E1000816821F002018160217E94F8202083689E
:100E200043EA4101816041686AB141F40061416077
:100E300041681D4A21F460414160616A02EB413121
:100E40004268114301E021F400614160C16A174B1F
:100E500021F47001C162E269616903EB0252C36A65
:100E60001A43C262826822F40072826094F83020D1
:100E7000836843EA42228260826822F48062826050
:100E8000826842EA8121816000206064216C012235
:100E900062F301012164002184F83C1070BD00BFA1
:100EA000042301400100000F00E0FFFF0000F0FFFD
:100EB0007047000070B586B0044601A81421FFF702
:100EC0006DFA21686A4881423FD100262049009688
:100ED0004A6900F5604042F480724A614A6902F44E
:100EE00080720092009A00960A6842F001020A603D
:100EF000096801F00101009103210396029101218B
:100F00000191009901A900F039FA124D124A4FF4EB
:100F100080704FF48061C5E90866C5E90026C5E91F
:100F20000266C5E90416C5E90660284600F05EF9C8
:100F300008B1FFF722FB122000210022AC63A56359
:100F400000F062FB122000F051FB06B070BD00BF44
:100F50003038024028560010106402407CB5044628
:100F60000020019094F83C00012804BF02207CBDC1
:100F7000012084F83C0013460A4621688868C007AF
:100F800010D18868364D40F00100886096480068AE
:100F9000B0FBF5F000EB40000190019810B1019812
:100FA0000138F9E78868C00758D0206C40F2017515
:100FB000A84300F5807020644868400504D5206C83
:100FC000012565F30D302064206C0025C00444BF6A
:100FD000656C25F0060565646FF022050D604D68AF
:100FE000002045F080654D6084F83C00A06B1D4DED
:100FF0001E4EC5641C4DC0E90F658D6845F48075B3
:101000008D604C3100F07EF919492068D1F8042335
:10101000D2060AD0884221D1886810F0405F1DD1E5
:10102000886840F08040886018E088420ED0114AFD
:10103000904207D0104A904210D1D1F80413C9064B
:101040000CD103E0D1F80413C90607D4816811F06C
:10105000405F03D1816841F08041816000207CBD08
:1010600040420F00E9040008FB0400088304000864
:10107000002001400022014000210140F8B5044653
:1010800000200090D4E91660574A08211568376897
:10109000814039420CD0226813685B0708D5136879
:1010A00023F004031360B160616D41F001016165DB
:1010B00001218140394208D022685269120604D5C4
:1010C000B160616D41F002016165042181403942E6
:1010D00008D022681268920704D5B160616D41F0B2
:1010E0000401616510218140394217D020680268EF
:1010F000120713D5B16002680168520306D4C9050E
:1011000006D4016821F00801016001E0080301D460
:10111000216C00E0A16C09B120468847E16D2020D8
:1011200000FA01F23A423BD020680368DB0637D56B
:10113000B26094F835300268052B19D122F01602FE
:101140000260426922F080024261226C0AB9A26CFC
:101150001AB1026822F0080202603F208840B060A5
:10116000002084F83400012084F83500216D37E038
:10117000016852030CD4C9050ED4016821F0100196
:101180000160002084F83400012084F8350003E079
:10119000080301D4616C00E0E16B09B12046884787
:1011A000606D00B3606DC00719D0052184F835105B
:1011B00021684FF416500A68B5FBF0F022F00102E6
:1011C0000A60009A01328242009202D80A68D2076D
:1011D000F7D1012084F83500002084F83400E16C58
:1011E00009B120468847F8BD140000202DE9F041E0
:1011F000044600F097F9ACB10546022084F83500AA
:10120000002084F834002168086820F0010008609C
:101210000868C00709D000F085F9401B052837D8B9
:101220002168F5E70120BDE8F0810868344A271DF0
:10123000E8CF00EA020E43EA0E032B43D4E9050C83
:1012400033433B43D4E90728184340EA0C00636A60
:10125000104340EA0802042B1ED1D4E90A53206B44
:101260001A431043086051F8140F20F0030040EABD
:10127000050040F00402B3B1BCF5005F24D0BCF11E
:10128000000F31D1022D32D0012D27D07DB30AE0DD
:1012900003262027032012E00A6051F8140F20F0E3
:1012A000070040EA030220460A60FFF737F9E16DC4
:1012B0003F2202FA01F181600027012600206765C4
:1012C00084F83560BDE8F081032DECD80126402775
:1012D0000120DFE805F0020C0203F0E7A3F1C07083
:1012E000B0FA80F0400904E0032D04D3DBD1C3F34E
:1012F00000600028D7D0012640270120DFE700BF8B
:101300003F8010F0B0B5044690F83400012828D092
:101310000120A56D84F8340094F8350001281DD112
:10132000022084F83500002060652046FFF710F9A0
:10133000E26D3F23206803FA02F2216CAA60026882
:1013400042F01602026019B1016841F00801016023
:10135000016841F0010101600020B0BD002084F867
:1013600034000220B0BD704703490A68024214BF2E
:1013700008607047FFF7F7BF143C01402DE9FC4FB0
:101380005F4A082490425F4A08BF072402444FEA9C
:10139000B223072B38BF4FEAB2244FF0010B4FF0B6
:1013A00000084FF0000E00220094BEF1200F08BF8D
:1013B000BDE8FC8F0F680BFA02F6374200F093800D
:1013C0004F68122F00F295800BFA07F414F0061FF5
:1013D00000F08F80032303FA0EF48368CD68A343E3
:1013E00005FA0EF52B438360C7F30013456893405D
:1013F000B5432B436FEA040C4FEA420A4360C468CA
:101400008D6804EA0C0405FA0AF52C43C46047F021
:101410001004122C12D108F01C040F2303FA04F557
:101420006FF0030303EA52070744D7F820900B69D3
:1014300029EA0505A3402B433B624F68036807F088
:10144000030403EA0C0304FA0AF423430360FB00D9
:1014500049D5002301932E4B2B4F1C461B6822F0CD
:10146000030543F4804323602368BC4603F48043B0
:1014700001933D44019F274F08F00C030F24B94608
:10148000EF599C4027EA0404009F07FA03F3234323
:1014900045F80930DCF800304D6843EA0604EF03F4
:1014A00058BF23EA0604CCF80040DCF80430AF0350
:1014B00043EA060458BF23EA0604CCF80440DCF8EB
:1014C0000830EF0243EA060458BF23EA06040F4B34
:1014D000CCF808401F461B68AD0243EA060458BF1B
:1014E00023EA06043C6008F104080EF1020E013202
:1014F0005BE7032303FA0EF46FEA040CF2467EE77F
:10150000001C02400000FEBF003C01400C3C0140BA
:101510004438024008FCFFFF002A08BF090481612B
:101520007047000005480068704700BF1F48034926
:1015300000780A6810440860704700BF7479012081
:1015400080B50B48016841F400710160016841F405
:1015500080610160016841F480710160032000F046
:101560006FF8002000F006F800F022F8002080BD9F
:10157000003C024070B50D4E044630784FF47A714D
:10158000B1FBF0F07F490968B1FBF0F000F0B4FA6C
:1015900001250F2C08D838B94FF0FF302146002222
:1015A000002500F031F87460284670BD0C00002062
:1015B00082B000200C4901904A6842F480424A609F
:1015C0004A6802F480420192019A0090086840F053
:1015D00080500860086800F0805000900098072054
:1015E00002B000F02DB800BF40380240002808D4F7
:1015F00000F01F01012202FA01F1024A400942F8FB
:101600002010704700E100E0B0B5134B4FF0FF35FC
:101610001B68C3F30223DC1E83F0070338BF0024DA
:10162000042B28BF042305FA03F3994305FA04F3B6
:10163000A1409A431143BDE8B04000F0CDBA00BFCD
:1016400005494FF6FF030A681A4060F30A2203486F
:1016500010430860704700BF0CED00E00000FA0581
:101660002DE9F041002800F08680444B0446D3F871
:101670000004884600F00F00884207D283F80084F7
:10168000D3F8000400F00F00404574D120688107B2
:1016900011D5410703D5996841F4E05199600107DC
:1016A00003D5996841F460419960A1689A6822F075
:1016B000F00211439960C0072BD06068811E022997
:1016C00003D21968890109D455E0012803D11968AA
:1016D000890303D44FE0196889074CD599681D46E2
:1016E00021F0030108439860FFF71CFF064641F212
:1016F00088376068A9682B4601F00C01B1EB800FB8
:1017000007D0FFF70FFF801BB842F2D90320BDE8D6
:10171000F081D3F8000400F00F00404507D983F8AA
:101720000084D3F8000400F00F00404523D1206866
:10173000410705D5E1689A6822F4E05211439960A7
:10174000000706D52069996821F4604141EAC0008C
:1017500098601C4600F01AF8A168094AC1F3031109
:10176000515CC8400749086007480068FFF702FF5E
:101770000020BDE8F0810120BDE8F0810038024082
:10178000643E0008140000201000002010B5134C27
:10179000606800F00C011248082903D004291CD10C
:1017A000104810BD2168236801F03F0221685B02E8
:1017B000C1F3881105D4A1FB00010023FEF754FDFD
:1017C00003E008484843B0FBF2F021680222C1F36D
:1017D000014102EB4101B0FBF1F010BD04380240C1
:1017E0000024F40000127A002DE9FC41002800F0EA
:1017F000C88004460078BE4EC00744D0B06800F0F0
:101800000C00042805D1306880033CD56068D0BB4B
:10181000B7E0B06800F00C00082802D17068400200
:10182000F1D46768B7F5803F06D03068B7F5A02FD0
:1018300012D140F480203060306840F48030306055
:10184000FFF770FE0546306880031CD4FFF76AFE80
:10185000401B6428F7D9D7E020F48030306030682E
:1018600020F480203060FFF75DFE0546002FEAD1AE
:1018700006E0FFF757FE411B0320642900F2368182
:1018800030688003F5D4207880072CD5B06810F03C
:101890000C0F07D0B06800F00C00082809D1706860
:1018A000400206D43068800716D5E068012813D0BE
:1018B00067E0E068002800F0C8808E4801210160E0
:1018C000FFF730FE05463068800705D4FFF72AFE93
:1018D000401B0228F7D997E02069316821F0F80110
:1018E00041EAC00030602078000720D56169814856
:1018F00071B10121C0F8801EFFF714FE0546706F1C
:10190000800714D4FFF70EFE401B0228F7D97BE0B6
:101910000021C0F8801EFFF705FE0546706F8007A6
:1019200005D5FFF7FFFD401B0228F7D96CE02078B2
:10193000400729D4A769002F00F0D780B06800F0D5
:101940000C00082863D1012F1BD0E169706800F4F6
:1019500080028A4215D1216A00F03F028A4210D1EA
:1019600047F6C071626A014091420AD1A16A00F44F
:1019700040328A4205D1E16A00F07060884200F08E
:10198000B4800120BDE8FC81306C4FF00008C0003D
:101990000CD4CDF80480306C4FF0010840F080503A
:1019A0003064306C00F0805001900198814F3868AD
:1019B000C0050FD4386840F480703860FFF7B2FD7E
:1019C00005463868C00505D4FFF7ACFD401B02286A
:1019D000F7D919E0A768012F05D0306F052F45D141
:1019E00040F004003067306F40F001003067FFF7CF
:1019F00099FD054641F28837306F80074ED4FFF7D6
:101A000091FD401BB842F7D90320BDE8FC8139495C
:101A1000002088460866FFF785FD0546022F0AD19B
:101A200047463068800142D5FFF77CFD411B03200B
:101A30000229F6D95AE03068800156D5FFF772FDC9
:101A4000411B03200229F6D950E02A4800210160F9
:101A5000FFF768FD0546306880077FF544AFFFF764
:101A600061FD411B03200229F5D93FE020F0010070
:101A70003067306F20F004003067FFF753FD0546F4
:101A8000002FB7D141F28837306F800706D5FFF7B6
:101A900049FD411B0320B942F6D927E0B8F1000FF8
:101AA0003FF448AF306C20F08050306442E71C3483
:101AB0001FCC084340EA8210D9034FF6FF729143CE
:101AC00040EA0460A1F58031084370600120386667
:101AD000FFF728FD04463068800106D4FFF722FD99
:101AE000011B03200229F6D900E00020BDE8FC819B
:101AF0000038024000004742411E0020B0EB116F49
:101B00001CBF01207047044AF023516003490B7049
:101B1000072190601160704710E000E023ED00E0C5
:101B2000FEE7FEE7704770477047FFF7FFBC000015
:101B300070B592B006AC201D1421FEF72FFC0025D5
:101B40001B4801950168022641F080510160006840
:101B500000F080500190019816480195016841F409
:101B600080410160006800F48040019007201190DE
:101B7000402010960F9008200E901020CDE90C65A3
:101B80000A9001200990069601982046FFF72CFE46
:101B90004FF4C05005904FF4805004900F20CDE9D1
:101BA0000265019001A80221FFF75AFD12B070BD35
:101BB00040380240007000400548D0F8801041F4E1
:101BC0007001C0F880104FF000610160704700BFE5
:101BD00008ED00E0FEE7000010B5074C00F00F0331
:101BE0002344044AB0F1FF3FC8BF831808011870AE
:101BF00010BD00BF00E400E014ED00E0F0B50023EC
:101C00008B4228BFF0BD02EB430632F813407688C2
:101C100024F0030426F003060559875902330751BF
:101C20008551044406446568776867607560E7E736
:101C30002DE9F0410588984616460C460746012ACC
:101C40000BD1201D294641B190ED000A0139B1EEBA
:101C5000400A80ED000A0830F5E7102D14D0202D41
:101C60001ED0402D15D0802D0ED0B5F5807F17D019
:101C7000B5F5007F0DD0B5F5805F0AD0B5F5006FE2
:101C80000ED0B5F5806F0FD13846214600F030F800
:101C90000AE07A6820462946012301F023F903E08F
:101CA0003846214600F0E8F8B8F1000F04D0BA68D1
:101CB000B9892046FFF7A2FF012E17D100EE105A76
:101CC000B8EE400AB7EE001A81EE000A75B194ED45
:101CD000001A94ED012A20EE011A22EE402A84ED2A
:101CE000001A84ED012A0834013DEFE7BDE8F081D8
:101CF0002DE9F84F2DED087B81460088002401EB8B
:101D000080024FEA500A01924FEA8A0ED9F8042065
:101D10000EEB800C4FEA800BC508002D00F09A8076
:101D200001EB040801EB0B03D3ED001AD8ED002AF8
:101D300001EB0E0701EB0C0672EEA13A96ED012ABB
:101D400096ED020A96ED031A97ED013A97ED024AD5
:101D500097ED035A93ED016A93ED027AD3ED030AEE
:101D6000D6ED004AD7ED005AC8ED003AD8ED013A59
:101D7000D8ED026AD8ED037A36EE879A37EEA08A5C
:101D800033EE86AA88ED01AA88ED029A88ED038ACF
:101D900035EE018A34EE009A33EE02AA87ED01AAED
:101DA00087ED029A87ED038A35EEA48A101987ED34
:101DB000008A33EEC66AD0ED003A90ED018A26EE35
:101DC000239A72EEE11A26EE086A01EEC89A01EE35
:101DD000A36A32EE432A83ED019A83ED006A22EE74
:101DE000083A34EEE56A06EE233A31EE451A30EE53
:101DF000440A86ED013A26EE083A02EE633A36EEE0
:101E0000C72A0EF1100E86ED003A90ED026A90EDB1
:101E1000037A37EEE03A63EE060A23EE073A42EE23
:101E2000470A02EE063A21EE072A00EE062A20EEC5
:101E3000070A01EE460AC3ED030A83ED023A86ED76
:101E4000032A86ED020A0CF1100C0BF1100B103472
:101E5000013D62E708465146022301F043F8D9F8F4
:101E60000420019851460223BDEC087B01B0BDE877
:101E7000F04F01F037B800002DE9F84F2DED160BAB
:101E8000058891ED002A6A0801EB820606EB8203C1
:101E900093ED000A93ED011A91ED013A96ED005A87
:101EA00096ED016A03EB820433EE014AD4ED000A99
:101EB000D4ED011A72EE002A32EE400A33EE411AD6
:101EC00034EE067A72EE853A30EE062A31EE453A65
:101ED00037EE217A73EEA03A32EE612A33EE203AE1
:101EE000C1ED003A81ED017A86ED002A86ED013AD6
:101EF00032EEC52A34EE463A32EE602A33EE613ACB
:101F00000E91029683ED002A049383ED013A30EEA0
:101F1000460A31EE051A6FF0030330EE210A31EE66
:101F2000601A03EB820103EBC20B6FF0070384ED31
:101F3000000A039484ED011A03EB02140F910D942F
:101F400002EB420403EB84096FF001030590406843
:101F500003EB95034FEA530A0690A8084FEAC20E16
:101F60009700A30000210025002601900E9ABAF1E7
:101F7000000F02EB0E0C02EB01009CED020A90ED4B
:101F8000022A02EB070494ED025A02EB030832EE38
:101F9000004AD8ED020A34EE057A37EE207A9CED3D
:101FA000031A90ED033A94ED036AD8ED031A80ED1D
:101FB000027AD4ED032A33EE017AD8ED033A77EEB4
:101FC000222A72EEA32AC0ED032A73EE412A72EE92
:101FD000403A37EE462A32EE613A34EE452A32EE86
:101FE000C54A069832EE851A33EEC60A34EE207AD8
:101FF00033EE864A31EE601A30EE210A32EE602A64
:1020000034EE616A0C9600EB060200EB050608440C
:1020100000F0C480CDF82CE00A9709930791DDF811
:1020200038E00F9BCDF82090294673440EEB09054C
:10203000DDF834900EEB0B07D5ED011AD3ED002A35
:10204000CE44D7ED004A72EEA13ADEED016A73EE9E
:10205000A45A75EEA65A9EED004A17ED015AD5ED29
:10206000000AC3ED005A53ED015A17ED018A75EECF
:10207000A07A9EED009A37EE888A38EE098A03ED41
:10208000018A90ED028A90ED03AA27EE089A27EEC6
:102090000A7A06EE087A06EE4A9A32EEE16A75EEA0
:1020A000E00A74EEE61A84ED027A36EE457A70EEB6
:1020B000A12A37EE047A62EE8A5A47EE085A27EED2
:1020C0000A7A02EEC87A84ED039A47ED015A87ED49
:1020D000007A96ED047AD6ED055A63EE072A23EED0
:1020E000253A02EE073A42EE652A37EEC52A8CED14
:1020F000023A33EEE43ACCED032A73EE662A36EE6A
:10210000C33A32EE442A62EEA52A27EE033A42EEA3
:10211000472A02EE653A4846C5ED002A85ED013AA8
:1021200092ED062A92ED077A21EE023A21EE071A85
:1021300000EE021A00EE473A34EE450A88ED021A24
:1021400031EEE01A88ED033A30EE460A21EE073A06
:1021500000EE023A20EE070A01EE420A0F9A8EEDD7
:10216000003A8EED010A0DF1240E083A08380D46AA
:1021700007999EE88840DDF820900F920D900C9E04
:10218000ABF1080BA9F108090831103518360833EE
:102190000EF1080E0837AAF1010AE7E690ED024AAF
:1021A00090ED035A67EE040A46EE450A27EE055AFB
:1021B00006EE045A019D0E9884ED025AC4ED030AFE
:1021C00096ED044A96ED055A23EE046A23EE053A8D
:1021D00002EE456A02EE043A174E29468CED023AA9
:1021E0008CED036A92ED062A92ED073A21EE024A3F
:1021F00021EE031A00EE434A00EE021A069A042367
:1022000088ED021A88ED034AB047059C029862687F
:1022100029460423B0476268049829460423B0473E
:102220006268039829460423B446BDEC160B01B03E
:10223000BDE8F04F604700BFE52E0008F8B52DED72
:10224000028B14460E460546E4B195ED011A95ED54
:10225000000A21EE018A00EE008AB0EE480A01F081
:102260002AFDB4EEC00A371DF1EE10FA05D686ED50
:10227000000A0835013C3E46E6E7B0EE480A01F0A8
:102280001AFDF4E7BDEC028B01B0F0BD2DE9F04F73
:1022900091B00EAC07C41C9A1D4602FB03F01D9BB7
:1022A0004FEA450800FB03F108FB02F0DDF8A090BF
:1022B000584309EB400009902598059108900020AB
:1022C00089B207912799069000B288425BDA21997A
:1022D000002448431F99411A1D980A9108440D9003
:1022E000269920B288424BDA2099DDF828B048437D
:1022F0001E990B94411A1C980C9101EB000A0D9841
:102300000FFA8BF6B04224DD0F980C9C06FB00F709
:1023100020B282451ADD44EA0B0109B200290ED42D
:1023200010998E420BDA0F99884208DA0E993844D8
:1023300000FB051049462A4600F09DFD03E0484693
:102340004146FEF709F8C1440134E1E70BF1010B06
:10235000D5E709980B9C814510D12398DDF8A09012
:10236000009024981B9A01902298079B029008984D
:10237000494603901A9800F0C1FB08900134AFE77A
:10238000069801309EE728981A9B814545D02499EC
:10239000012088404FEA500C05984FF0000900F0EA
:1023A00003084FEA900E1B98814536D02298289D4D
:1023B00010F909402398764684406444370413D0CA
:1023C00080CB013E4FEA37202FFA80F02FFA87F7B3
:1023D000C7EA0042296822FB0141C0EA27406A6837
:1023E00020FB02140835E9E700264746380407D0E9
:1023F000985735F91610013611FB0044013FF5E7F7
:102400002498434444FA00F000F30700089909F1C6
:10241000010901F8010B0891C5E7002011B0BDE8E2
:10242000F08F2DE9F04F93B08246980740F08080FE
:102430001D98C0077CD10E4610922798DDE91E2119
:102440001F46099002FB07F00D9048434FEA4708EA
:10245000DDF8A890079008FB02F0209B484309EBA9
:10246000400000210A900F97CDE911A6219A08B2E9
:10247000904262DA059123994843811A1F980022FD
:1024800008440B910E90289910B288424DDA229997
:102490000B9D4843C11A1E988B4601EB000A0C9213
:1024A0000E982FB2B84224DD7E435C4620B28245AE
:1024B0001CDD44EA050109B24FF0FF3291420EDD06
:1024C00010998F420BDA1299884208DA0F9A119903
:1024D000304400FB0210494600F0EAFC03E04846A5
:1024E0004146FDF739FFC1440134DFE7129E013553
:1024F000D6E70A98814511D12598DDF8A89000907B
:1025000026981D9A019024984946029009980390B4
:10251000079883B21C9800F007FC09900C9A0F9F53
:10252000DDF844A0209B0132ADE7059901319DE71C
:10253000FD2040B213B0BDE8F08F2898C01A069075
:102540002998801A04900D9840000C90049A08B2C3
:10255000824240F3D8800591239900224843219973
:10256000411A1F98089108440E9010B2984277DAE9
:102570002299DDF820A04843A0EB030B1E980B9294
:102580000BEB00050E990FFA8AF0814220DD00FB6B
:1025900006F45E4630B2854216DD4FF0FF318842C8
:1025A0000BDD1299884208DA1199204400FB0710CC
:1025B00049463A4600F07CFC03E048464146FDF7B8
:1025C000CBFEC1440136E5E7129E0AF1010AD9E7C4
:1025D0000A98814511D12598DDF8A8900090269899
:1025E0001D9A0190249849460290099803900798F3
:1025F00083B21C9800F098FB09900B9ADDF844A078
:10260000209B0132B1E72299089D4843C41A0B92DE
:102610000E9928B281420BDD00FB06400D9A00FBAB
:1026200007A0494600F044FC0C9801358144EFE7CF
:102630000A98484511D12598DDF8A8900090269871
:102640001D9A019024984946029009980390079892
:1026500083B21C9800F068FB09900B9A209B013212
:10266000069910B28142CEDC46E02299089D48438B
:10267000A0EB030B1E980B920BEB000A0E9928B2ED
:1026800081421FDD00FB06F45E4630B2824516DD56
:102690004FF0FF3188420BDD1299884208DA119918
:1026A000204400FB071049463A4600F001FC03E0D5
:1026B00048464146FDF750FEC1440136E5E7129E0B
:1026C0000135DBE70A98814511D12598DDF8A890FE
:1026D000009026981D9A01902498494602900998E6
:1026E0000390079883B21C9800F01EFB09900B9A88
:1026F000DDF844A0209B0132289910B28842B4DB57
:102700000599013122E7219ADDF870A0059108B200
:102710002999884260DA239900244843811A1F9836
:102720000C9108440E90289920B2884251DA2299DF
:102730000C9D4843C11A1E980E4601EB000A0D94E9
:102740000E982FB2B84225DD1298344607FB00FBE5
:1027500020B282451CDD44EA050109B24FF0FF3288
:1027600091420EDD10998F420BDA1299884208DAF5
:102770000F9A1199584400FB0210494600F098FB4B
:1027800003E048464146FDF7E7FDC1440134DFE779
:102790000135D5E70A98814502D0DDF870A013E035
:1027A0002598DDF870A000902698DDF8A89001909B
:1027B00024981D9A0290099849460390079883B27D
:1027C000504600F0B1FA09900D9CDDE92032013449
:1027D000A9E70599013199E72A9881453FD0079AE1
:1027E000269801214FEA920C814002F00308099AD1
:1027F0004FEA510E00231D98834230D024982A9D21
:10280000C4562598664684407444370410D05AF85C
:10281000047B013E4FEA37202FFA80F02FFA87F72A
:10282000296827FB01416C6820FB04140835ECE79C
:1028300000264746380408D01AF9060035F9161064
:10284000013611FB0044013FF4E72698C24444FAE4
:1028500000F000F3070002F8010B0133CBE7002082
:1028600067E62DE9F04F87B0DDF850900C464946F9
:102870001D46174600F01CFB07F0030E0EEB070089
:10288000DDF844B00290012000FA0BF0DDE912CA35
:102890004608B808690806900195CDE9036E08045A
:1028A0005BD005919CF901001099DDF818B08840C3
:1028B00083199CF90000884000EB06085FEA0B4092
:1028C0001FD02068ABF1010B4FEA30222FFA82F2C1
:1028D0002FFA80F0E65904344FEA362E2FFA8EF59F
:1028E0002FFA86F6D9F8001021FB008021FB063173
:1028F000D9F8043023FB020823FB051309F108096A
:10290000DCE7DDF810E0DDF844B0E2190CF1020C70
:102910000020764631040AD0115619F91050013EB4
:1029200015FB01332156013015FB0188F2E743FA0C
:102930000BF000F307008AF8010048FA0BF000F3EF
:1029400007008AF8000002980599DDF85090039E70
:10295000044401390AF1020AA1E7019800F00108D4
:102960005FEA084030D09CF900001099069A884030
:1029700083194F4610040FD001CC013A4FEA3021A1
:102980002FFA81F12FFA80F03D6825FB00307B683B
:1029900023FB01030837EDE70CF1010C0020724620
:1029A000110407D0215617F91050013015FB0133DF
:1029B000013AF5E743FA0BF000F3070074440AF814
:1029C000010BA8F10108CBE7002007B0BDE8F08FAC
:1029D0004360428001807047F0B5428843680088B8
:1029E000496884000D46164626B180CB013E2F6013
:1029F0002544F9E704310138F4D10020F0BD2DE978
:102A0000F04F8CB0CDE901021A981D9C4042009015
:102A100019980893DDE91563069104FB01F541421D
:102A200000220298824266D0049121EAE170069960
:102A3000039248431999079002FB06F0401A41425D
:102A400001EAE0710B910899514305910199002227
:102A5000A1EB000817988045A8BF8046009E079804
:102A6000002EC8BF304408998A423ED01E990A926F
:102A700004FB001E1A9902FB03F0401A414201EACE
:102A8000E079059909961144069A6143161A189837
:102A900000238642A8BF0646A34220D0DDF82CA022
:102AA0006FF07F0C7246C24511DA10464F46B742AE
:102AB00009DA00EB040B90F9000001378445D8BF18
:102AC00084465846F3E72A440AF1010AEBE7209AC4
:102AD000581802F800C00EF1010E0133DCE7169B16
:102AE000099E0A9A1E440132B9E70499159E039A79
:102AF0003144013295E70CB0BDE8F08F2DE9F04F7D
:102B00008FB003F0030C804603EB0C00199C01907E
:102B10000120DDF86CB0A0404008DDF868E00BEB68
:102B2000020A049058009F0800925208CDE90A0357
:102B3000CDF824C0CDE90271100400F0A280CDE9E7
:102B400007AB05929EF90100189A894615469040F8
:102B5000049A744600EB020C9EF900006346A840FC
:102B600086183846B246CDF818E0040441D0DDF8A6
:102B700028E0D8F80070B346CDF834C059F80E40BC
:102B8000D9F800500C934FEA372C2FFA8CF62FFA15
:102B900087F70E900B98C7EA064158F80020C6EA5E
:102BA00027464FEA32232FFA83F32FFA82F2C2EA42
:102BB000034021FB05AA21FB04BC0C9920FB051B4B
:102BC0000D9D20FB045009EB0E046468D9F80470D5
:102BD00026FB07AA26FB04C6C3EA224121FB07B352
:102BE00021FB040C0E9809F10809013808F10408CA
:102BF000BBE7DDF818E00B9D099F0EF1020E0024E3
:102C0000380413D018F9050039F9151039F91420D2
:102C100011FB00CC10FB023318F90400013411FB46
:102C2000006612FB00AA0135013FE9E71998014649
:102C300043FA00F000F30700DDF820B08BF8010044
:102C40004AFA01F000F307008BF800004CFA01F09B
:102C500000F30700DDF81CA00BF1020B8AF801005D
:102C600046FA01F000F307008AF800000198059A7F
:102C7000DDE90271DDF824C08044013A0AF1020A5C
:102C80005AE70098C0074AD09EF90000189A904071
:102C9000049A00EB020E724638041DD058F8044B1B
:102CA0000A9B08684FEA342551F803902FFA85F5FE
:102CB0002FFA84F4C4EA054626FB00EE26FB092021
:102CC000CA185268C5EA24434C6823FB04EE23FB70
:102CD0000202013F0831DFE70B98002401EB4003BB
:102CE0005FEA0C400DD018F9040033F91450ACF130
:102CF000010C15FB002231F91450013415FB00EED4
:102D0000EEE7199801464EFA00F000F307000BF8C1
:102D1000010B42FA01F000F307008AF80000009866
:102D200058440FB0BDE8F08F2DE9F04F8CB00491FE
:102D300003F0030103911944169D02910121A9405A
:102D4000490801915900189CCDE90913DDF824B018
:102D50000592224499080025009105998D4280F042
:102D600085801799CDE907240E464957159A019B8E
:102D70001446914045F00102B25601EB030CA2400B
:102D800002EB0308009BDDF810E0C1460695CDF884
:102D90002CC01A0432D005685EF80B204FEA352AA1
:102DA000DEF800402FFA8AF62FFA85F59A460A9B3C
:102DB0006146C75804304FEA37232FFA83F32FFABE
:102DC00087F725FB04CC0B9925FB021527FB048410
:102DD00027FB02990EEB0B077F68DEF8042026FB29
:102DE00002CC26FB07510B9123FB024823FB0799DA
:102DF0005346AAF101030EF1080ECAE70A9D039C8F
:102E00000022230413D043573EF915603EF9127097
:102E100016FB039913FB078883560B9917FB03CC0A
:102E200016FB031101320B910135013CE9E7169ABB
:102E3000134648FA02F202F30702089C4CFA03F127
:102E4000627001F30701217049FA03F101F30701F0
:102E5000079A023451700B99194101F3070111705F
:102E60000299069D08440235023276E7059820440F
:102E70000CB0BDE8F08F70B5930873B110C8013B7A
:102E80004FEA34252FFA85F52FFA84F4C5EA244653
:102E9000C4EA0544E1E80246EFE702F0030200233A
:102EA0009A4208BF70BDC45621F813400133F7E7BA
:102EB000B0B5930853B110C8013B4FEA34252FFA3F
:102EC00085F52FFA84F4E1E80245F3E702F0030206
:102ED00000239A4208BFB0BDC45621F81340013305
:102EE000F7E700002DE9F84F2DED108BA0B0DFEDD6
:102EF00005AA019004300D46CDE903320290084640
:102F0000189101E0F304353FEA08D400A4EBD500A2
:102F10001101530102EB420C069202EB8202C00047
:102F20004FEACC07D600029A1790E8001B934FEAAD
:102F30000C134FF0000BCDE919711CA91F9461C14E
:102F40000A93179802EB070E02EB00081E98D5189B
:102F500002EB00091F9818ED011A02EB000A1A98FB
:102F60001EED013A02EB000C1B9819ED016A1044AA
:102F70005AED010A55ED014A5CED016A10ED019A26
:102F800012ED01BA33EE015A70EE862A36EEA48AAB
:102F90003BEE09DA98ED002A9EED004A99ED007AA1
:102FA000DAED001A72EE853A3DEE08EA3EEE23FABB
:102FB0007EEE633AD5ED005ADCED007A90ED00AA82
:102FC00092ED00CA02ED01FA40ED013A74EE023AC8
:102FD00031EE87EA3EEE63FA3DEE488A38EE0FDACC
:102FE0000CED01DA7EEE233A37EEA5DA3CEE0AEA82
:102FF00034EE422A31EEC74A33EE411A30EEC63A79
:103000007EEE0D8A34EE027A33EE416A78EEA39AB0
:1030100038EE4F8A78EEE33A27EE2A7A77EEE51A11
:1030200026EE2A6A7BEE490AC2ED009A05ED018A76
:10303000C0ED003A71EE873A70EE865A75EEA37ACB
:1030400032EEC55A7EEE4D2A4AED017A72EEC57A0D
:1030500075EEE33A35EE225ACCED007A48ED013AAE
:1030600085ED005A31EEC75A30EEC66A33EE011ACA
:1030700034EE422A36EE057A21EE2A1A36EEE43A8A
:1030800022EE2A2A3CEE4A4A09ED017A33EE017A11
:1030900074EE020A70EEC71A36EE455ACAED001AEF
:1030A0000EED015A37EE205A88ED005ADDE91C0575
:1030B000189BAB441F9C33EE411A34EE422A1E9EED
:1030C000199F9B450A9B32EE413A31EE021A0244A7
:1030D00089ED003A8EED001AFFF433AF402DC0F0B9
:1030E000AE810398DDF8049080B205900698002127
:1030F000C0EBC0004FEAC00E4FF001080598049DD8
:10310000014405EB411090ED000A05EB01108DED37
:10311000170A90ED000A05EBC1008DED160A90ED3F
:10312000000AC1EBC10C05EBCC008DED150A90ED4A
:10313000000A01EB410005EB00128DED140A92ED3F
:10314000000A01EB810205EBC2038DED130A93ED3A
:10315000000A05EBC0038DED120A93ED000A4B0146
:1031600004332B448DED110A93ED000A0B01043357
:103170002B448DED100A93ED000ACB000433099126
:103180002B444FEACC018DED0F0A93ED000A043178
:1031900029448DED0E0A91ED000A01010431294404
:1031A0008DED0D0A91ED000AD100C000043104300C
:1031B000294428448DED0C0A91ED000AD0ED006AF7
:1031C0000A99CC4643468DED0B0ACDF81C90CDF8FC
:1031D00020800CEB04051A9C0CEB0E080CEB040A87
:1031E0001B9C0CEB07000CEB06020CEB01090CEB33
:1031F000040BD8ED027A98ED03BA90ED028A90EDB7
:1032000003EA92ED029AD2ED039A95ED02CAD5ED4A
:1032100003BA99ED02AAD9ED03EA9AED02DADAEDE2
:1032200003FA9BED021A9BED03FA9CED022ADCEDFA
:10323000038AF0EE6A5A7EEE0BAA7BEEA9CA3FEE35
:10324000AE0A38EE8F3A38EE276A3CEE097A7DEE08
:103250000A1A72EE012A7CEEAADA33EE004A77EE01
:10326000060A72EEA13A34EE2D5A73EEA04ACCED66
:10327000024A8CED035A33EEE05ADDED173ADDEDEC
:10328000104A34EE6D4A63EE840A24EE844A03EE5B
:10329000854A44EEC50A32EEE15A37EE466A33EE0D
:1032A000400ADDED161A8BED024A3CEEEA4A30EE9A
:1032B000463ADDED0F2ACBED030A75EE040A21EE46
:1032C000837A02EEE07A61EEA00A42EE830A35EEDE
:1032D000443A9DED135A36EE000A9DED0C6A25EE38
:1032E000004A06EE434A25EE033A06EE003ACAEDDE
:1032F000020A8AED037A89ED023A3EEE4B0A3BEE72
:10330000E93A38EE677A7CEE490A89ED034A33EEF2
:10331000004A70EEC71A30EE877A33EE400A24EE88
:10332000254A3FEEEE5A61EEA51A32EE411A27EE1B
:10333000257A7DEE4A0A20EE250A38EECF3AF0EEE5
:1033400065AA35EE046A31EE212A70EE873A73EEF3
:10335000004ADDED155A9DED0E9A72EE062A74EEC6
:10336000E37A32EE462A33EEA46ADDED143ADDED5F
:103370000D4A25EEA78A69EE277A09EE628A45EEA4
:10338000A27A63EE862A24EE866A03EE826A44EE0F
:10339000C22A35EE442A30EEC75A33EE400A9DED7C
:1033A000127ADDED0B0A31EE611A30EE453AC5EDC9
:1033B000027A85ED038A88ED026A31EE024A27EE31
:1033C000036A20EE833A07EE043AC8ED032A35EE8D
:1033D000000A82ED023A9DED113A31EE421A23EED7
:1033E000002A26EE800A00EEC46A06EEC12A03EE29
:1033F000010A82ED036A1D9D80ED020A80ED032A19
:103400001C981F9C844418981E9E199F2B4483422D
:10341000FFF4DFAEDDF82080DDF81C90069808F19F
:103420000108099909F108098045FFF467AE03987E
:103430003F2D069D4FEAC00003903FF665AD20B0DA
:10344000BDEC108B01B0BDE8F08F70B58A084FF06D
:1034500001330024150408D00568013A03EAD516A3
:10346000C4FA16F6B54320C0F4E701F003010022C8
:103470000B0408BF70BD90F900300139B3F1FF3F74
:10348000D8BF02700130F3E780B14FF48061018250
:103490004FF40071084A01804FF4E07181810549C1
:1034A0004261064AC0E90121002000E0FF2040B24D
:1034B000704700BFE8A20008C8370108C827010804
:1034C00080B14FF4006101824FF48061084A0180AD
:1034D0004FF4E161818105494261064AC0E9012159
:1034E000002000E0FF2040B2704700BF807100085C
:1034F000C847010848BA000870B14FF480710182D2
:103500008021084A0180D021818105494261064A13
:10351000C0E90121002000E0FF2040B2704700BF59
:10352000907F0008C867010848DA000868B12021C8
:1035300001821021074A01801421818104494261DE
:10354000054AC0E90121002000E0FF2040B2704799
:1035500030810008C86B010848DE000880B14FF4D4
:10356000805101824FF40061084A01804FF46E617E
:10357000818105494261064AC0E90121002000E03D
:10358000FF2040B2704700BF58810008486C010816
:10359000C8DE000880B14FF4007101824FF48071E1
:1035A000084A01804FF4DC71818105494261064A75
:1035B000C0E90121002000E0FF2040B2704700BFB9
:1035C000189F000848AC0108C81E010868B14021D6
:1035D00001822021074A0180302181810449426112
:1035E000054AC0E90121002000E0FF2040B27047F9
:1035F00088A2000848B40108C8260108F8B50546A5
:10360000008A14460E464008288073B12846314689
:1036100022461F4600F0AEF9284621463A460123CD
:1036200001B0BDE8F040FEF703BB2846314600225A
:103630000123FEF7FDFA284631462246BDE8F84050
:1036400000F0E0B9202915D0402915D0B1F5807FD0
:1036500014D0B1F5007F13D0B1F5806F12D0B1F561
:10366000805F11D0B1F5006F1CBF4FF0FF30704785
:103670000C490847064908470649084706490847CC
:103680000649084706490847004908475D350008CC
:103690002D350008CD350008F934000895350008AF
:1036A00089340008C13400082DE9F84F2DED066B70
:1036B000564F801A0390594E07F14C00DFF864B161
:1036C000DFF868910D464FF000080190B5EE008AD2
:1036D000002002920399B860884279DA4E4A0021AC
:1036E00002EB800200F58073B9614418FF290ED8FF
:1036F0009C420CDA52F82140A94246F82140A4BF6E
:1037000006EB8104C4F800800131B961EDE74FF0A8
:10371000000AC7F818A0FC60019C4FF48071204695
:10372000FFF790FF387020463D4C97F8283031461F
:103730002246FFF763FF786994ED010A0BEB402006
:10374000B0EEC00A494680ED7F0A3748026820463D
:10375000FEF774FD2E4CBAF17F0FC7F810A030DCD5
:1037600005D178690BEB402090ED7F0A09E009EB69
:103770008A01786949680BEB402000EE101A40F886
:103780002A1097ED091A31EE000A87ED090AF86947
:10379000032811D120EE080A00F080F9C7F8248030
:1037A000C7F81C80386AD7F810A0411C04EB8000D1
:1037B000396280ED000A01E00130F8610AF1010A86
:1037C000C9E77969B868013179610299084481E7EC
:1037D00007F130040E4B204627212022FFF7F8F88E
:1037E00007F138050B4B284620212722FFF7F0F878
:1037F00020462946FFF7F0F80020C7E90700786166
:10380000BDEC066B01B0BDE8F08F00BF800000206A
:1038100088560010086A0010E436002078790120EC
:10382000887F0010742B012018000020887D001074
:1038300086B0FDF785FEFEF77BF90026464FCDE901
:103840000466009638684FF47E4140F010003860FE
:103850003868012200F01000009000980096386847
:103860004FF47E4940F00100386038684FF001089D
:1038700000F00100009000980096386840F00800C1
:103880003860386800F0080000900098334800F570
:103890006C4483462046FDF73FFE31480396029074
:1038A000102001ADDFF8BCA001900BF57040294657
:1038B000D04703200396CDE901800BF560402946EF
:1038C000D04720462946CDE90366CDE90198D04787
:1038D0000A2000210022FDF797FE0A20FDF786FE50
:1038E00001963868002140F4800038603868002272
:1038F00000F48000019001983820FDF785FE382003
:10390000FDF774FE184C194A4FF000704FF4403127
:10391000E66284F8206084F81880A26284F830801F
:10392000C4F81C80C4E900B1C4E902062046C4E919
:1039300004680496FDF71AFA0520039001A92046B1
:10394000CDE90168FCF71CFE094920464FF47A5284
:10395000FDF704FBFEE700BF3038024000200140C5
:10396000000011107D130008E05500100100000F49
:10397000F4EC002010B591ED001A91ED012AB6EE9D
:10398000000A31EE423A31EE021A23EE003A21EEFD
:10399000001A82ED001A82ED013A03884069013B6A
:1039A00001EBC30404340831083208304BB314ED82
:1039B000011A94ED002A91ED003A91ED014A90ED43
:1039C000007AD0ED010A33EE415A34EE426A31EE0C
:1039D000031A05EE206A05EE471A32EE042A07EEB6
:1039E000426A02EE601A083026EE004A21EE001A02
:1039F00082ED001A82ED014A0831083C0832013B91
:103A0000D4E710BD10B591ED000A91ED011A30EE2A
:103A1000002A31EE011A32EE413AB6EE000A32EED9
:103A2000011A23EE003A21EE001A82ED001A82ED0F
:103A3000013A03884069013B01EBC30404340832B6
:103A40000831083091ED001A91ED012A14ED013A88
:103A500094ED004A90ED007AD0ED010A33EE415A20
:103A600032EE446A33EE011A05EE206A05EE071ABB
:103A700034EE022A07EE426A02EE201A083C26EED5
:103A8000004A21EE001A82ED001A82ED014A083246
:103A900008310830013BD5D110BD000010EE100AEE
:103AA00010B5A0F500014FF0000CB1F1FE4F6CD243
:103AB00000F500216FF07E0202EBE153C1F30252E8
:103AC0004FF07E5101EB025100EE901AA0EBC35073
:103AD0000CEB030100EE100A51EA020036D030EE82
:103AE000601A30EE200AC1EE000A20EEA00A60EE55
:103AF000801A9FED3D2A9FED3D1A3D48DFED3F2A9C
:103B000000EE021A784400EB82009FED3A2A21EE83
:103B1000810A01EE101AD0ED001A3748B8EEC11A2A
:103B2000784400EB820041EE021A01EE101A90ED8B
:103B3000002AB8EEC11A01EE222A9FED311A32EEA8
:103B4000000A00EE810A31EE800A10BDF7EE000A8D
:103B50009FED2D1A70EE600A9FED2A0A00EE801A82
:103B60009FED2A0A60EEA01A00EE810A9FED281A46
:103B700000EE801A21EE810A9FED261A00EE810ADE
:103B8000B5EE0B1A00EE810A10BD4FF07F41B1EB8C
:103B9000400F03D2BDE8104000F0B4B8B0F1FF4FC1
:103BA00008BF10BDB5EEC00AF1EE10FA06D2012032
:103BB000FCF723FCBDE8104000F0A8B8B5EEC00A41
:103BC000F1EE10FA07D10220FCF717FC00F090F894
:103BD000B1EE400A10BDDFED100A6FF0160C20EEBA
:103BE000200A10EE100A63E7DE02323E3B3D943EAF
:103BF0001C03000000209A3E20030000FC849A363B
:103C0000D95B5E3F924FA93D7279DEBD2D3E143ED9
:103C1000D85B5EBE157B4B3C0000004B10B52DED14
:103C2000028BB0EE408A18EE100A00F0CBF801EEDD
:103C3000100A18EE100AB7EE000A78EE410A10F0EA
:103C4000004F4FF07F4010EE901A12D0B1F13F4F6D
:103C500024BF10EE901AB0EB410F12D210EE901A62
:103C6000B1F17C5F1CDD10EE901AB0EB410F17D361
:103C700014E0B1F13F4F07D910EE901AB0EB410FAD
:103C800002D331EE401A0BE010EE901AB1F17C5FD6
:103C900006DB10EE901AB0EB410F01D331EE001AA3
:103CA00018EE100ABDEC028B11EE101A61F31E0023
:103CB00000EE100A10BD10B52DED028BB1EEC08ADA
:103CC00018EE100A20F00040C0F1FF40C00F0AD0EB
:103CD00010EE100A20F00040C0F1FF40C00F04BFFA
:103CE0000120FCF78AFBB0EE480ABDEC028B10BD48
:103CF000DFED030AB7EE001A81EE200A70470000DC
:103D00000000000030EE000A70470000DFED020AFC
:103D100080EEA00A70470000000000000EF1020EC5
:103D20002EF0030E5EF8044B244204D44FEA410205
:103D3000B2F17F4F11D84FEA4003B3F17F4F0CD857
:103D40000ED14FEAD07C0CEB4C0C0CF1020CB2F112
:103D50007F4F08BF4CEBD17C04E04FF0080C01E032
:103D60004FEAD17C0CEB4C0324FA03F404F0070473
:103D7000B4F1040C06D20EEB840CBDE810404CF0FC
:103D8000010C6047DFE80CF0070802024FF000402A
:103D9000A0F5800010BD0846420018BFD2F1807225
:103DA00088BF00F0004010BDF1EE100A4FF6FF7121
:103DB000C0F2C03120EA010040F04070E1EE100A8C
:103DC000704700005FEA400C5FEA1C6CBCF17F03A7
:103DD00014D4D3F1170240F31C804FF0010C0CFAFD
:103DE00002FCACF10103034020EA0300B3EB5C02E8
:103DF00008BF10EA0C0F88BF60447047B3F1FF3F63
:103E000028BF5FEA002C00F0004088BF40F07E50E1
:103E10007047BCF1FF0FB8BF704710B5FFF77EFFCA
:103E200040DBB6BE000000000080513D0070C63D82
:103E300000900D3E0050343E00E0573E00D0783EEA
:103E400000C08B3E000000000AD6A936431C8C3708
:103E5000658F7338832DA236121D1F38B3756F38E6
:103E6000D2535A3800000000000000000102030491
:103E700006070809F3F8DE0AF9F91B1A1012F5F023
:103E8000F909ECF4FAFAFD2C2CFFEEF00CE0ED173A
:103E900017EF0FFBE8F71BECFDEFFCF2091FEE1329
:103EA000360BF80723EAEA0E19E4FA06FBE3EEF90B
:103EB00015E40D25251F170123272E180BEF04F4F9
:103EC0000408F4F7E7F0E3FBF4131CFAFB240F18E3
:103ED00033354531F82E30E712F5FE0FE9F6FC15C3
:103EE000F60E2704F4FD000EFE1305F2D9F725F5B2
:103EF000FC00071803F519FA11020B190D0AED065B
:103F000008ED05FC04FD0E10E9FAF8FF0000FD0DB8
:103F1000FB0C24F4E2FB0204FAE5F011F50312F5C0
:103F2000F7E20F01F80800F00D12EE0DFA0604F6A4
:103F30000209F611FC0503FB0CFA0AF4F7F6F6FD8C
:103F4000FB0818EF0109F404FAEE01F016F7EB0490
:103F500001FA00FD01E4FFF40903FAE8FBEAF4F1D9
:103F600008F9F2F9030EFAFC02F90BFD0704F5FB60
:103F7000F8FAF7070D0DFB03010502F80BEF090531
:103F8000F61504070FF4EE18F0001802E81305FF09
:103F9000F8F1F60A12F7F3030E0B0818071D0801D3
:103FA00016F6CF0724FA0014F91116FE14EDD8EF17
:103FB0000BFBFA16EBFBF30201F4FAEE0DFA03F930
:103FC000FF160CF51401FCF41BF009F6FF17F00EB8
:103FD000F8ECFCF3040CF9F6FA0A09F009FD0A0BF7
:103FE0001BFDEEFBFA0F01040405150C13F8ED0D93
:103FF000FA100FFFED01160B0A01F5000C0E0DF57E
:10400000FDFD2D0EED15F8FF0CFD1002F206131C40
:10401000E8FAF6080D00F5F5EA040F010A05F2F5D5
:1040200014F9EDF5FEFA11F907F30E0700FC08028A
:1040300007F400111415FBF8031311EC2006F3F438
:10404000F80601000BEFF7F5EBFB08F4020BF8F9AB
:10405000FD08EDFAF20DFF071105030D01FD0B013F
:1040600012FDFF1105FCF40B0A08FF0B08FAF4F12E
:10407000F4FD06E60E00F701FDFF04EE0AF2F7F28A
:1040800003040DF6EEF10A01FC0A0307101611F6FF
:10409000F3EF10F7F5F70511090413000E060702F8
:1040A0001114F81309FFFD000CFD03EE0903F803DA
:1040B00015080601F0041FE2F1E6EB0A07FF01F024
:1040C000F7E7150E1110F20F050F12F200F0FEF5D2
:1040D000FB0D04F704FE1400F3042003F208F4EBD4
:1040E00012F1FFF7080013F10105FD0702F40B00C0
:1040F000140117F30DFF0E05020212020610E4FC74
:10410000FC0710F5F111020FFEFFF4F7EBFE09F8C2
:10411000F5EA05FAFDEEF500080DF2F10D09EDFFE7
:1041200011F5D5FF120A0208FBF30D100D11DE0583
:1041300005050904FEE40EFF0D04D913F8F8FBF69B
:1041400009EDF8F9F8FA2302ECF5111310FE040A50
:10415000F410FD07F604FA10FFFF0111F70506073A
:1041600005F7F401FD03140B06030CF502EBFF0247
:10417000FB150D14EEFD0D09030CEB02FA1DFFEE0D
:10418000FF0710FCF4F2F1FFF9F911EAEBF30D0669
:10419000F1F5FA09FD0E0EF5EC15061AE9FBFBFF29
:1041A00007FD0DFFE4F2000304FBFB0AF602FA0B25
:1041B000F4030509F6FAFB0107E2F8FFFD04F40633
:1041C000F4F707F904FAFB0CFE04ED00FAFB01F129
:1041D00004FAECFFFCF514FB0405FE0DFA1F19139D
:1041E000E1F013F50B0B0519061614FDDD101FFA8F
:1041F000E7FEEC1B0AE30A0AF3F3200BEE0BF407CD
:1042000007110BF8EDF909F7EE0C07F8F6E2F6FFE7
:10421000F60EFD08E5F706EB0AF6EA0504F318F5D5
:10422000EE06020B0E0309F9FC0605F9F7F8FDEDA1
:10423000F4FE040B08F7E90806F10BF50C0BF7FD8B
:1042400009F1FBF6040CF000F01408ED01ECFCF9A8
:10425000F108EA08050A0AFAF50609EBF401F7F68F
:10426000FDF0F403F800F60F02FE09150B05FCF64D
:10427000FD0003F8F8EF0009FBFAF700F4EF070080
:10428000FB0CF6F8EDEF07FFECFDF7F316140C123C
:10429000FC0905FFF6FF0AFEF3F00412EBFAF5FD48
:1042A000FF00F60408ED03FAFEF9F6F5EE10EFE76D
:1042B0000CFB04FBF015F6FDED18DE011AFE0905F6
:1042C0001113F8FF06F7E3030BFF13F8F41B140FA9
:1042D000F7FCD5FD09F6FFEEFAF0EB06F105F41058
:1042E000FD0FFB0EF20A11F304F3020FFE19FCF2AC
:1042F00007040BFD01FAF5F409E8F4F802010AEDF0
:10430000FBFDE601FAFA03100701FAF20CEFF608DA
:104310001313FB09FE03080DF008E407F402FEF78F
:1043200009F1F6FFE907F7EDF8010000FDF507FBDD
:10433000E2F40107FDFEFAFB0308F70FFF0F07EB9E
:10434000F8ED0CF705F10CFCFAFAFC00FDE90204AB
:10435000040EFC10F7FBF30817F807110F050810FF
:10436000ED0EFD05F7F107ECFD0CEC05F209F40587
:104370001A0401FD091A0809F7F4F81318FDFC16D0
:10438000F106000C1AFD0BF3F906F90B02F4110605
:1043900013EBDA00F80B080D06F0F2FB17FBF20343
:1043A000EFF0FDFEF3FDFD09E5F8FFF405F30B0C5E
:1043B000070305FD03020A0408E8F20F0FFD130DC1
:1043C000FEEDE7EDF3FB0E00F8F60105E0060BE36A
:1043D000F8E00EF809F5ECFEE4000EE505E309103F
:1043E000FEFD120904EA05FE03EE03050007FC05C5
:1043F000E7151814F51EF9F510EF0404E3F0140E98
:1044000016F9131502FC141107E7150E0A0BF41127
:10441000EE0117020BF4FEFDEBFF01EC01E2F6F2F8
:10442000E91214FEFA0106F807FAEFFBE8F92B0986
:10443000FE0A0912090209F21D0BEE05F61E05041B
:10444000F0F5050E0BFEE90507F904F20607F5F392
:10445000E2F003F3F5F603FBF800F3FC19F6FBF9C1
:10446000FE05F6E8F612EA09020DE8FF0BFA12065D
:10447000FF05F30918EADF080AFFFCFEF907F3FE5F
:10448000FCF8D2F903030610F3FBFBFE0AFBDAEAA1
:104490000D03F110FC12010A00FEE5EBFEEEFC102C
:1044A0000202FD07FFEF141705FFEDFE0C13160EB9
:1044B0000112061707100713011115F209051E1145
:1044C00002F8F9FE02020CFB14FBF5F91104FDF8E9
:1044D000061307F71009FDF608F20FFC04FBFD03B5
:1044E000F5F2F204F604FA0B01EEF0F9FFF6E90F2B
:1044F000121707F20114ECF4ED0204F81806FE0797
:1045000005FF07F005EFFB07F7F3F5FE0E0BFC07C1
:10451000FD07ED08F816F0F9090207FC0A03FCF4A0
:10452000170E10F7061A100E02EEFE08F6F8F30842
:1045300002FB0F0402EE0EFC0AFDFD11F91915082D
:10454000FE0614FD11FBFDFAF7FE01F1F8F4060B6F
:1045500015FE0DF60D0FFA0DEFEE0C170102FC1112
:1045600010FCFD05EB0A120DFEFD0AF00903080A16
:1045700003FB14FBFEFC08F3F7FE04FD000111171A
:10458000F101FDF210FC0D0F0D030704F3F408EE2A
:1045900000F8F30BF211030A02FD0DF010FB0DFC05
:1045A00005F4FAEDF0F804F503F60108EB0100015B
:1045B00007F4FBF403EB050BF0F2EC00FCF9070148
:1045C000FFFDFE030105E1FCFA0911061306030DC8
:1045D000EF08F1050AF20011F1F3FB0300FAFBFF0B
:1045E000F1F507FA12FA03040AF6F9FE06EF0D0CCC
:1045F000140D1111F50EF90EFE0C1101FBFE0E0942
:10460000051203160C13F5FF040AFCFB07FCF90660
:1046100003020205F40803F803FD0100F302FDF5AF
:104620000C04F40BFC0F0DF71AFB02F70C23F10638
:10463000F30BF716090708140AEF0DF1F80BE8144D
:104640000815F408010909FFF30009050605F50935
:10465000FDF4F2FA0A0313F4FD01F2FEFCED0CF591
:1046600010F50712130E0500061807F4120EEBEFF3
:104670000E120BEDF91DEEFA03F7DAE5F9DEF1F0B3
:10468000F0F7F5F80305E8EE09F3FBFBFE04F6F698
:1046900000FAFA0703FA01FA030B07FC0BFEFBE72B
:1046A0000EE00104FF02F6FC0F0903FE0E080206ED
:1046B000FF1513FD0B0501091C0002FDFB1313FE82
:1046C000FCF70DF4FFEBFC0B02F3FDFCF8112913D2
:1046D000F611FD0C05F2FAF9F2082514F6170A0D89
:1046E0000CF6F8FA24F0050001081003F0FDF6F0CE
:1046F00017EBF3020EEFF700F909FA060D0CFC05B3
:10470000E700EFFDF501F40414F20EED0803F10AE1
:104710000AE70E000FFB04EFFF020E0FF7F3FCFD9C
:10472000FF03F5F8E6FD090110DA0211FB062EFC85
:1047300007EDF80507F2FAF6F3041AF408F2020F8F
:10474000FEFE04F5090303EEFAEF0EF70D090E1253
:1047500001060C030AF0EBF4EF08F2F20B05250654
:104760000BF801FCF00700F3EEFA100313FCFAF665
:10477000F30DF4130705020605F4F602EEF8ED0456
:1047800006100B0F0213F9F8FA0AF50806020213D5
:1047900009F70FFD0A1B0B010A08F1F10BFB0C11C5
:1047A000F809F210FFF9EDF0120E08F50B0DFE06F8
:1047B000040E0612100E0702F62F0D09F60EFE016A
:1047C0000216100EF30B1500060C11F9F20B05FC86
:1047D000FD08070EF9040902F9FBF9F9F00EF3F1EF
:1047E0000411120BFE16F50D06FA0DFA060EF50A67
:1047F00006F6030D010BF30CFFFEE603FBF907F1D0
:10480000F8F5F0F0F3040D0C0D0FF6040AF80EF4B1
:10481000FB0F0604040BF210070BF2F3FAF4FDFF92
:104820000C0009FA09FEF9FE0BFA0A12EA0400FC70
:10483000050A0BF9070D001311F9F0F30CFEF70749
:10484000FB070AF60FFAF8030B1E0A020CFDFE091D
:10485000EFFDF102F9EE0200FFF1F0F301FE0DEDC4
:10486000FEF901FA0303E9000905F8F4071C13F83F
:104870000A040109FA0511FD0AE6100703EEFBFC24
:104880001107F2F50809EEF7F81704F90F0C1203F7
:10489000F21D0DEF18EAE9E509E0E6FAEA100EFA72
:1048A0000001ECEFFCF2F209EBFC0A0AF80318F441
:1048B00005FA03050D04F70FF50304EA11F4E60702
:1048C00009F01302F3F2000B0F0404F7091111FCB5
:1048D0000B13FAF1FEFAF7F606FE0BFBFFFB10FED8
:1048E000FAEEF8FD060513FE040817F60DF80303AB
:1048F00000F20F16F90312EEF8EC0F130B07F60E89
:1049000001F80E0602F004FB04FAFDF60204F9FBBE
:10491000F5FC00F1F10A10050504000705EE0B0E89
:10492000F300FAFE0FEF06FFEFF6F4FAFCF10408CD
:104930000CFB0204FCF60C1402F7FD03F5F0F1FF8A
:10494000FEF5EF0300FFF6FBFA0A03F5F5F90E0694
:10495000FE02FF05FC0706FA08FCFBFFFA0302F85B
:10496000F30301FAF8F807FDFB0B01F6F40D0EF462
:1049700008FBFCF70C020C0CF6FAF5F4F9FAFE0D44
:104980000DFB0308FBFF110BFDEFFAFE01F403FE24
:10499000FE06FD070705FEFA0B0AF206080F0BF7E5
:1049A000F3FC04FA0107050007000804FCF602F90D
:1049B0000C0708090B0E0CF70AFD010A1307100675
:1049C000F80B0AF408FE05FCFFFB0AF702060003D9
:1049D000FC08FF0709030603F100F40A010EF9FAC7
:1049E000090B08FE070D090308F8050303F0FAF99F
:1049F000FEFFF6FFFF02EAEE01F5F712030307F9E7
:104A00000B0DFE04FDFFF10C0313FF060408EB0879
:104A100015FFEE06010AF7EB030AF60CFD03EE0E96
:104A20000301EFFDF8FDFA0508F5F7FA0A05FA07A4
:104A3000F6FAFBF5F902F7080901FB0BFBF8E8F5BC
:104A4000F2F8FCFA07F6F803F8FFF906F5F40806A1
:104A50000F0C050D08FBF7030CF8FC000AF1F7FE3C
:104A6000F8FAFC0A01F7F908F8FFF1F3FD0C07FF6B
:104A7000000CFE02EF03F7040AF8F803FCFFF1064E
:104A8000F902F201F6FDF0FF000006F806ECED0277
:104A9000010AF102050406FD0304FB0A0EFCFFFDFA
:104AA00001F8070A01F8040707F6FDF8F7F4F1F634
:104AB000FC04010006FCFFFD0D0CF9F6F8F700F10F
:104AC000F5F90AFCF9F30DFDFE0E060F0008F805D6
:104AD00008020603FC0003FF0301000201010C04AD
:104AE000FA060AFAFF00FBF004F9F108F2040CF6EA
:104AF0000404F807F1F8F3FB05FA04FFF808FF02D5
:104B0000FF09F6FD08F3F6FA06010405F2FF0C08AA
:104B100008F8FE0D0105FAFC08FAFFFA040A080875
:104B2000F4FFFC0109F00CF607FE0C0DF50903FF7C
:104B30000402050B0700FD05FBEFFAFB00F807FE7A
:104B40000200F705F40809F80FFB060600FEF5F76A
:104B5000FAFD03FFFDFEF8FA06F9F8FF0304FFFC77
:104B6000FD03FBF710F809F302F3FF00F9F306F871
:104B70000CFCFB0F00F9F707F8050302FA08FEF832
:104B8000FDFA000FFF0604010101FC0007031412E7
:104B9000040309FDEFFFEC0301F6FE01ED0A11032A
:104BA000E901FC0CFEFD0AF907F8FFF5F0F908062B
:104BB000F1FEFCFBF90A0AF803120207FCF41105E6
:104BC000080107F5010F170FF5010108FAF80303B3
:104BD000F806FB00F800FF041008FEF5FBFEF500E8
:104BE000F8FAFA03000505F7EC0C0C1009F5F704C8
:104BF0000A0C0AF9080A0D04F5F602FFFAFA13FF87
:104C000001F9080307FF03160FF80205FC0C0DF964
:104C100003F404F9FF00010BF7F7010DFBFF00FEA1
:104C20000C00F70BFC03FBF20006090CFAFE16FE63
:104C3000F30002FBF9FC05050D00F1F6050AF5EDA0
:104C4000EEFA0301EEFA09061008F8FFF4FD04126B
:104C500007F9F8F20704F101F8F5F701F9F8EBF2BA
:104C600000F502FA06F90D0D07F40405050B010A1B
:104C7000010604FEF70AEC0A16F307FE04F80CFF1F
:104C8000F9FAF6F5FC0801FD07FBF9F90BFEEDFE5C
:104C90000F05F502F8060501F80C02F8F7F4FE041A
:104CA00007FD07F50609FEF9FF04FD02FA04FA0004
:104CB000F7FD050DF909FEF704FA040AEFF602FC08
:104CC000E7140007FAF5EEF206FAEE02E60006EC4B
:104CD000FDF2FF06EFF8F706FD06FDF3FB0A04FB05
:104CE000F50BFAFBEAFD07F3FCF70B0BFBF8FCFFF7
:104CF0001006FC060DFFEFFFF7FDFAFF080209F8AA
:104D000008EC040D00F4FB07F40500FD05FC01FBB5
:104D1000FA03FAFEF50300F80CFF000EFFF4DF0FB4
:104D2000FAFF00F1F80803FB0000F20CF90AF6059F
:104D30000A01060103FB03051307060FFBFDF9F348
:104D4000F3040209F4F3FDF8FDF5FBFA07FBEC01AF
:104D5000FDF9F9FDFEF701FE11FD05F9E8FB060E70
:104D6000FDFC0306FD10020BFD08FB00FF0CFEFB23
:104D70000307FE0302FEF6FDFE0303FDFF0107022B
:104D8000E9E706F40BEEFB07FFFBF8F7F606FCFC81
:104D9000F4DF0A0403FFF2FFFEE111EC0BFF18152C
:104DA00008FD07FFDE05F11000F31206ED03F20126
:104DB000FCE41604FD0D161103050500FE06FE02B7
:104DC000F9070705F4000B0104FE10F508050B12A6
:104DD000FFF609FAF1030701FEF1100A0A09EB01D7
:104DE0000F0B05E9F9031007F5F9FE08ECEFF0FCED
:104DF000FEFAFE07F8FCFB050B00EAF105F9FA09DB
:104E0000F6070AF7F4FFF7000CF603F9080500FBB4
:104E1000F4F2F5FF0608F605FBFD05F8F00D0005B8
:104E2000F8FA05F9F4F007FC01F70504050DF80F91
:104E3000FCFAF6FFEBFAF409F80C0BFA010CF70494
:104E400007F902F9F800FF00F9E5F0FDE902FC08B6
:104E5000FC0A0508F401F5000CF407FD07FFFE0A43
:104E6000010401FF10FF0B0306FB0DF8FFFB02031B
:104E70001003070C02FBFFF5F6FEF5040DFCFFFF27
:104E800001FAFD0DF7FFF409F603F90008FBE9F854
:104E90000BF7FC0BFCFAEEEAF200F0F904FBF70A60
:104EA000190FEFF2010703FBF9FF04FB0AF2F0030D
:104EB000F7F9F5EFFAF6FEF61402FFFE0DF2EFF940
:104EC000FFF0F7050F020200FBF6FCF20AFAFBF90D
:104ED0000E11FD03FE0EF704F4F8090E040405FCA0
:104EE000FC030BFFFF06F10600FBEE00FD02EAEA01
:104EF000F30A020D060E08FEFCFCFB02F6F00609A2
:104F0000EE0AF901FF04EAEEFD07FA04F004F8F9ED
:104F1000FF01FCFBFE00FBFBFCF8F0F10806F9F3D7
:104F2000FD0505FAEB0DEEF407FB00010108FA069A
:104F3000F80503071005F300F6030E0714F10BFC48
:104F400003FF0700F4FB09010B00FA16F908EBED6B
:104F50000C0A050C0BF4FCF7010AFDFAEE0DF90A38
:104F6000FCFA020E06F7F2F909EE03FEECEFF0F59B
:104F700003F9FBFFF0000DFA0312FCF9F90CF0F550
:104F800010F1000608E7F1FA0B08F7EEF810FFF54C
:104F900010FAEA040001FC0407FD030610F2EDF527
:104FA000EFF9FE00F3060C07070B010C07080708D2
:104FB0000F08131203F2FA040A0604F7F9FFFF09B7
:104FC00004F00F08FAF90809F2F405F70508F409E6
:104FD00004F905FBF80109F2FF10030BFFFFF605CA
:104FE000F605F5FA05F5FFFBFB00FCF203070CFFE5
:104FF000F904FC0A0AFBF1F40209F80507F208F8C3
:10500000F20BFCFF14FE110110FFFF0F0608FA035C
:10501000FC020A0CFD050000F4F2060002FF09F68E
:105020000502F90E0CFFEEEE05FCF60709F601F29B
:10503000F6FC03FFFF020605EFF10E05F401FFF990
:10504000050203FBF7F9F4FAF1F20509F70110FC88
:10505000FDF1000E0303FAF105FEF6FE0302FA0568
:10506000FFF404F6010905F404FB0A0806F6ED0650
:10507000FCF70C0CFB030AFAF8FA080E08FFFC0612
:1050800007FE14EE09FDFCFB05EF070402FF030910
:10509000FFF9FBF9000CEFFE0215F40200F302FE2B
:1050A00006F6F5000B0401F906F602030608F905F9
:1050B0000214EDFAF8FC06F8060AFCF80A02F8F900
:1050C00002FF02F60C080CFE02FF02000400F9FCCD
:1050D0000609FFFC03F5F804020800F3FF05F9FADE
:1050E000F118FA08FDF8F4F80FFBF40DEC04FFF6E4
:1050F0000308F604020A0D09DF09FCF6EFF9F2FCD9
:10510000FE0905F4F7F703F2FE0AFCFA000107F8BE
:10511000EEFCF300F5F5000403FFF7F203F101FCE8
:10512000080BFCFEF4FA0202FA0EF606FF00F20784
:10513000050EFC0B07070DF6F8F3FD03F806030D4B
:10514000EF090B0402FFFAF604130908FF0E0FF132
:10515000FF0400FFF6FA0D10E70F000D0806F20538
:105160000EFC0008F3120EEDF808FD00ECFB040243
:1051700010FEF9FA0600F6F402F100010408F2F953
:105180000AFEFFFBFAF0FB000EF20BFC0700F3FF38
:1051900004FAF508FCFB0FFD07FD0107FAF60FFF07
:1051A000FCFC00FC04FDFA010DF4FEF5F9FD01071D
:1051B0000409050C0204F5FEF6F2060106F4F503F7
:1051C0000512FCF900FAF70A040D11F70A08FBFAB8
:1051D000FDFB10F807FA0A0A0DF5F4FDFAFDFAFCDA
:1051E000F9FE02F4F201FEF70AF8F7FD0AFBF405F6
:1051F000FA040E05F705F90CF20500FEF8FC0BFCAD
:1052000001FB05FF09FCFC0DFDFAFD090305EF0894
:10521000000D0C08F80300F806000DF9F707020866
:10522000080809FBF809FA06F3FC00F000090CF382
:10523000FA01FE0103000AF9F808F5040BFCF4FA80
:1052400005F6050401FA020AEF16F505FAF8F0FC76
:10525000F90AF9F5F8FE07F5FF03FFFE08F9100B50
:10526000E617080AFBF8F7FC090D0A0AFEFA14FC17
:105270000110FDFAF1F908FDEA11FA0CF806FCF547
:105280000203010304001305040AF70B02F3FDFBFC
:10529000FDE809F60C0E0105F605F4F5080C09F514
:1052A000F9050300F4F5010B06E5FEF908FA040020
:1052B000FBFC00F8FC12FBF6FBFB070FF9F80E01F4
:1052C0000BF912070807F605020102F902FAFF05B9
:1052D0000401FA0CFBF2020C10FDFEFC0C000706A8
:1052E00008FFF7FD0AF30604FB0604F8FD07FDF9C5
:1052F00004EDFA00FBFAF50E02F102F900F3FF07E4
:10530000FCF6FC04EA0804FA11F3F805F6F2070EBD
:10531000F6EF0801FDFD00FB0100FA0100080CFF9B
:10532000000D0EFC10F1FD080D09FDFF04F4EF085F
:10533000F4FC00060EFDF303FF08FE0C0302FF025F
:10534000FA0AFAFF01F90400F40C02F30000F9F97B
:10535000F90305F601FA030D090B010AF8F7F3FA50
:105360000502010AFCF801FC0E000506F7FFFB0A26
:10537000FEFAF409F7FB00F9FEF3FF06F9EFE70880
:10538000050F04F0F707F003F6FDFD04F50BF20638
:10539000090EFE0402F4E604F40B0300F903EFFA2D
:1053A000FDFFF4F7F80E020C030DFAFE0905F801F3
:1053B0000BFA09F809ED0F09F7F3F5F5FEFEF40213
:1053C000FCF9FDFE1A02F8FB11FB03020AF10808C2
:1053D000FCF6EDF9FDFDE8FFF6EFFCFB08FCF1053E
:1053E00003F7FBF707FDFD0AFB07F601060BF70DB8
:1053F000FD00FE06F600EF02F408F3010509F9FDD1
:10540000FDFA010509F901FB03FBF5F102FF0807AD
:105410000201F8FDF80A010B02FC0606F8FEFCFC8E
:1054200003EF000D0201E9FF0AFFFFFDF40A000B84
:10543000060406F9EA0AF70C0DF600FC01FFED0977
:1054400012E40D08FB10F6F301F6F6090D0B03FA52
:1054500003F304100AFEF00817F60105FA0C040124
:10546000FFEEFCFA07FEF1FE0EF50114F0F2D1009A
:10547000FB030602020F0306F7F4FD0100FAF0F643
:10548000FBF4FC0FEDF8E8FD14FEF70500FDFF0549
:10549000F5F107030F0107FBF8F9F7F7FDE9FE0047
:1054A0000710F50803FCFBFDFE010F04FD0DF8F7E6
:1054B000FCFEFEFDFEF1E309FFFD0BF50DF9FF0714
:1054C00002F7FE0401FDF40EF9F6060BFEF5F8FEF8
:1054D0001412F70E030EF3F7FBFBF60A11FCFA06A3
:1054E000FEFA02060AE8050B0011EC09FA00F500C5
:1054F00004FAF8FF090BF1F2F70EF805F702EFF5E1
:1055000013FBF108F406F6FF01F8F8FFF5F30008C5
:1055100003FF000402FFFF09040EF702FDFDF4ED96
:10552000F8FD040711F2F8FB02F7F50706FEFBF998
:10553000001CF60E03F5F4F1FAFEFB07FA08F7FD7E
:1055400000FEF50EFB0BF810E41FFB0A02F4FCF45E
:105550000B08F205FAF60E0BFEF7F3FB05050A043D
:10556000F5F5FF0600F9F8FE00FD0408FBF8FDFF65
:10557000FCFCFA0501F7FAFBFBF5F90F0E0501FB40
:10558000F6F6F0F70300FA07F5F701FB0B0AF80A45
:10559000FF00030D0D08F3F8FEF6FBFC01FEFB0F08
:1055A000F5FE01050B000307F6FB0201FAF2040900
:1055B000F6F71003E4F7FDF2F8020D0BEE07F8F72B
:1055C000F6F10107F5FB0905110CFE020FFD0002C3
:1055D000070515F9F80D0700FDEDFD040DFCFD10A4
:1055E00003FDF10A090509FA090A0301EEF5FB08B2
:1055F00002FB0AF801FD090B0A0DFB07F606FE0087
:1056000004FB03FC08FAF7080AFCF8F5F1FE0DFFAD
:10561000030A00F812F0F8F103FFF9FAF8F902FDB5
:1056200009F0FE0606FDFDFE05F90DF9FEF30DFB82
:10563000F80DFFF8060208FC0B02F60A070EF9FE49
:1056400001F9010B0CFE07FD0B02040FECFEF10A41
:10565000EC01F70AF50B040910FFF7F8F503EFFC6E
:10566000FA090212FBF91101F30B090BFAF7FEF824
:10567000FA0C0C07FA02FAFC050101F3F40506FC2A
:10568000E808FC04FCF0F8FAFEF40106F40600F465
:1056900009EDFEF7FFEF0A0BECFA0EF505FD060823
:1056A000F1F4F4F2010105F6F4EB0904EEEC050166
:1056B0000AFA15F609FD0E0500FC02F506050206BC
:1056C000FBF50EF707F2EC04F3E5FE050604070E02
:1056D000F40A08F60210FD05FC000604FE02F403BD
:1056E0000FEA10FEF5FA090F05EC0906F8FE070CA3
:1056F00007FE02FDFDF5F0050207FEFBF7F50114BC
:10570000F9F0FBFA05080206F9FFFB04EF04ED0AC5
:10571000060F0C060A08F70E00FEF2F301FBFDFF70
:10572000F406040CFD02FCF41621F90B0700F50643
:10573000F6F1EEF40300F9FF04F9F7FD00F50FF4BC
:105740000C26FB04F903EE0303FEF308070D02F534
:105750000800040105F804FC07F7F9110EFFFAF63A
:105760000D0F06FE14FE01EB02FBFEFD01FB051012
:10577000061B020E01FDF2020201070CFCF50207F6
:105780000608F600F916F80AEF0BEDF8FCFBF0023C
:1057900002F0F5FEE7FEF006FD0BF9F9070DFDF549
:1057A0000604F5FEFFFCE5F308FDF90703F30A0321
:1057B00009020004FD0CFFF81201010E10FAF3FBC0
:1057C00006F7FD0910F1FBF40202F40A0602FE0DD1
:1057D000FE1AFDFC0703EDF404FEFF010004F1F2E4
:1057E00002FEEF04F3FAED01F711F1EE0505F8F60C
:1057F000FDF2FAF10DFDF508F700F4FCF304F4F501
:105800001D0AF90CF807ECEEEAF3ECFB0CF6EE01DE
:10581000F4F7F2FBEEF404F4130907140A00EB04A6
:10582000FB0C070A0601060105F3FEF9FB00FF0069
:10583000060BF8EFF30602FA0A090B02EEF4F7F78B
:10584000FC06FBFE05FCFAF81006F904070707FE44
:10585000EB0A03FA03FEF6F908EFFAFD0BEE03F389
:10586000151A08F608F8111008FE02FA11FC0E0EBF
:10587000FAFFF9F90AF1F6FEEA13FD0C0506FDE858
:1058800009FAFB03FBFCF806FBF9F905FC0B07FF23
:10589000E409FD02F6EE07F2F508F3FBF5F6FD0468
:1058A000FAFAFBFFFC08FD0C04FF0FFB04F12604D1
:1058B000F1FD04F4060B03FDFFEE07F400F700030F
:1058C000F4F40A07060903FA03FE080D0B110CF4A1
:1058D000FEF00409F30707FEF0FE10F50A020E01C0
:1058E00003FEFFF9F31203FF0BF00401F3FFF211C3
:1058F00003F708F5FCFF140E06FBF9F8F00CF305AE
:10590000F6FAFC03F709F90B00F7F0F60405000BB3
:10591000070EF6FFFBF3F505FBFDFC0308FAFCF9A7
:10592000F00B020FFEF9F1EF090407FE01FA050082
:10593000FB020002F6FC0708F81CFB03F902F1F475
:10594000060603FDFB0D01050AF7FC080BF4FB043A
:10595000F300F4FBFDF4FA07FD02FC010200F7FB83
:10596000050203F4F6FB08FCFDFA0BFCF901F0FB61
:1059700009060BFD08020AF805FC0A0AFEFA03FDF7
:1059800006F9030B0C0FF9F8FFF80402FC10F806F7
:10599000F4FE080503FEFBF9F2FCFE06090DFCF916
:1059A000050F0A04E707FDF3040B02FBF404FDFDF9
:1059B000F703FDFDFF06020416F605FA0DF4F101EA
:1059C000FB04FA0EFD0B080702FAFEFBF50405FBCB
:1059D0000D0108F610F806FB0507FAF5FAF907F7C6
:1059E000010D040BFAED0209010EF2FEF50604F8B2
:1059F00005F206F2FAF20B0911F201F601F61203B2
:105A0000030BFE09FEFB0C0708FB0B03F204070562
:105A100015EB03F913F014170000FE0A0EF2F60A54
:105A2000FF0103F6F407FD0BEDF403FBF3FC02FDAD
:105A3000FD00FEF4FD0B01FDFC020A04F907080A53
:105A4000F60207EFF507040E08FAF2F2F305F90380
:105A500000FE05FF05FCFD01020401F2FEF6FC0C50
:105A6000FA0803F9EE00FD0502FDFAF10609FEFF52
:105A700002FB13F10306040E0CFE05F903F4F20316
:105A8000FEFB05F5F702010806F90EF2FEF104FA35
:105A90000800FD06FCF5FC02FEF6F8FDF70BFA0A1D
:105AA00000FFF5FF03F8F50203FEF401FDF4F2FE3A
:105AB00002F6FEFFFD00FFF6EC1FEE0AFF04EEEC1F
:105AC0000002110102F80EECF5ED01FF03E801F808
:105AD000F212F502F7020406FD0901060308FD0BA8
